S018000053746570706572496E746572666163652E7372656398
S113000045C0000060C000005EC000005CC000008D
S11300105AC0000058C0000056C0000054C0000080
S113002052C0000050C000004EC000004CC0000090
S11300304AC000002EC2000046C0000044C00000B8
S113004042C0000040C000003EC000003CC00000B0
S11300503AC0000038C0000036C0000034C00000C0
S113006032C0000030C000002EC000002CC00000D0
S11300702AC0000028C0000026C0000024C00000E0
S113008022C0000020C000001EC0000011241FBEBA
S1130090CFEFD0E4DEBFCDBF11E0A0E0B1E0E4E5F6
S11300A0F7E000E00BBF02C007900D92AC30B1073F
S11300B0D9F721E0ACE0B1E001C01D92AE31B20746
S11300C0E1F7F8D245C39CCF8230910599F03CF416
S11300D0009709F461C0019709F47AC008C084301C
S11300E0910509F441C0A4F1059709F449C080E0E1
S11300F090E00895209116012223D9F080911501F2
S1130100882369F0215020931601815080931501B2
S113011080E098E0909311018093100172C0215007
S11301202093160180E098E09093110180931001D0
S11301307BC020911501222309F483C080E098E05C
S113014090931101809310012150209315014CC00C
S113015080911001909111010097E9F1019790931A
S113016011018093100160C08091100190911101E0
S11301700097A1F10197909311018093100134C06D
S11301808091100190911101009759F1019790937A
S113019011018093100135C083E080930F01109208
S11301A011011092100181E090E008958150809334
S11301B00F0183E090E00895815080930F0184E063
S11301C090E00895815080930F0185E090E00895B8
S11301D082E090E0089582E090E0089582E090E06B
S11301E0089582E090E00895E0910F01F0E0EC5F63
S11301F0FE4F808185B980910F018111DDCF83E0AD
S1130200DCCF80910F0190E0FC01E85FFE4FDC0140
S1130210AC5FBE4F20818C91822B85B980910F01F8
S11302208111D0CF83E0CFCFE0910F01F0E0E85F00
S1130230FE4F808185B980910F018111B7CF83E092
S1130240B6CF08958230910599F03CF4009709F4F3
S113025061C0019709F47AC008C08430910509F49B
S113026041C0A4F1059709F449C080E090E00895E5
S1130270209114012223D9F080911301882369F07D
S113028021502093140181508093130180E098E061
S113029090930E0180930D0172C02150209314019C
S11302A080E098E090930E0180930D017BC0209133
S11302B01301222309F483C080E098E090930E0197
S11302C080930D012150209313014CC080910D01A6
S11302D090910E010097E9F1019790930E0180939C
S11302E00D0160C080910D0190910E010097A1F164
S11302F0019790930E0180930D0134C080910D01FC
S113030090910E01009759F1019790930E018093FB
S11303100D0135C083E080930C0110920E01109200
S11303200D0181E090E00895815080930C0183E0F9
S113033090E00895815080930C0184E090E008954A
S1130340815080930C0185E090E0089582E090E074
S1130350089582E090E0089582E090E0089582E0BC
S113036090E00895E0910C01F0E0EC5FFE4F808195
S113037082B980910C018111DDCF83E0DCCF8091C3
S11303800C0190E0FC01E85FFE4FDC01AC5FBE4F66
S113039020818C91822B82B980910C018111D0CF64
S11303A083E0CFCFE0910C01F0E0E85FFE4F808165
S11303B082B980910C018111B7CF83E0B6CF089543
S11303C0CF92DF92EF92FF921F93CF93DF9310921D
S11303D0120180911701882309F453C080E01BE0C7
S11303E0C0911C01D0911D01189FC00DD11D112475
S11303F04D815E816F81788589819A81AB81BC81D1
S1130400481759076A077B07B0F08881E985FA85A0
S1130410082E000C990B0995888380911201E091B4
S11304201C01F0911D01189FE00DF11D112415828E
S113043016821782108680911201E0911C01F091BE
S11304401D01189FE00DF11D1124C580D680E780A1
S1130450F08440910001509101016091020170917A
S113046003014C0D5D1D6E1D7F1D458356836783FF
S113047070878F5F8093120190911701891708F498
S1130480AFCFDF91CF911F91FF90EF90DF90CF908E
S113049008951F920F920FB60F9211240BB60F926C
S11304A02F933F934F935F936F937F938F939F9378
S11304B0AF93BF93EF93FF9380911801909119012B
S11304C0A0911A01B0911B010197A109B109809370
S11304D0180190931901A0931A01B0931B01892B61
S11304E08A2B8B2B89F46CDF8091000190910101A0
S11304F0A0910201B0910301809318019093190116
S1130500A0931A01B0931B01FF91EF91BF91AF919A
S11305109F918F917F916F915F914F913F912F9117
S11305200F900BBE0F900FBE0F901F901895609305
S11305300001709301018093020190930301609381
S113054018017093190180931A0190931B01089567
S11305508BE0809381008DE790E0909389008093F5
S1130560880082E080936F001092850010928400CE
S11305708091000190910101A0910201B0910301C9
S11305808093180190931901A0931A01B0931B0151
S11305908FB780688FBF0895813081F0E1ECF0E07F
S11305A0808188618083E2ECF0E0808186608083D2
S11305B083E38093C4001092C5000895E9ECF0E051
S11305C0808188618083EAECF0E0808186608083AA
S11305D083E38093CC001092CD000895813029F4F8
S11305E08091C800882374F008958091C000882306
S11305F08CF4A6ECB0E0E0ECF0E08C9180818823F0
S1130600E4F30895AEECB0E0E8ECF0E08C91808186
S11306108823E4F30895813041F0E0ECF0E0808138
S11306208823ECF78091C6000895E8ECF0E080811F
S11306308823ECF78091CE000895009721F08CF187
S1130640039744F02EC080E0A7DF80E0C7DF81E09D
S113065090E008958091C000882334F580E0DBDFCA
S1130660982F907C31F48F738093160182E090E090
S11306700895903431F48F738093150182E090E0F3
S11306800895903831F48F738093140182E090E0E0
S11306900895903C61F48F738093130182E090E09D
S11306A0089580E090E0089582E090E0089582E06B
S11306B090E00895CF93DF93CDB7DEB7A1970FB63F
S11306C0F894DEBF0FBECDBF8FEF81B912B884B9E5
S11306D015B883E080931701CE01019690931D0114
S11306E080931C01198282E390E0A0E0B0E08A8349
S11306F09B83AC83BD838E839F83A887B9878DE159
S113070093E09B878A871C868AE090E0A0E0B0E0B3
S11307108D879E87AF87B88B898B9A8BAB8BBC8B6D
S113072024E630E03E8B2D8B1F8A888F998FAA8F09
S1130730BB8F8C8F9D8FAE8FBF8F82E291E099A388
S113074088A36AE070E080E090E0F1DE01DFFFCF93
S1070750F894FFCF47
S10F075401000000102040800102040895
S9030000FC
