S015000055736572496E746572666163652E73726563DF
S113000045C0000060C000005EC000005CC000008D
S11300105AC0000058C0000056C0000054C0000080
S113002052C0000050C000004EC000004CC0000090
S11300304AC00000B2C0000046C0000044C0000036
S113004042C0000040C000003EC000003CC00000B0
S11300503AC0000038C0000036C0000034C00000C0
S113006032C0000030C000002EC000002CC00000D0
S11300702AC0000028C0000026C0000024C00000E0
S113008022C0000020C000001EC0000011241FBEBA
S1130090CFEFD0E4DEBFCDBF11E0A0E0B1E0ECEAE9
S11300A0FEE000E00BBF02C007900D92AA34B10736
S11300B0D9F721E0AAE4B1E001C01D92A836B20745
S11300C0E1F778D6F1C69CCFCF92DF92EF92FF9200
S11300D01F93CF93DF9310924A0180915801882394
S11300E009F453C080E01BE0C0915D01D0915E0132
S11300F0189FC00DD11D11244D815E816F817885BB
S113010089819A81AB81BC81481759076A077B07AB
S1130110B0F08881E985FA85082E000C990B0995C1
S1130120888380914A01E0915D01F0915E01189FFE
S1130130E00DF11D1124158216821782108680911C
S11301404A01E0915D01F0915E01189FE00DF11DFF
S11301501124C580D680E780F084409146015091F7
S1130160470160914801709149014C0D5D1D6E1D60
S11301707F1D45835683678370878F5F80934A0111
S113018090915801891708F4AFCFDF91CF911F9157
S1130190FF90EF90DF90CF9008951F920F920FB6CB
S11301A00F9211240BB60F922F933F934F935F93AB
S11301B06F937F938F939F93AF93BF93EF93FF932B
S11301C08091590190915A01A0915B01B0915C0119
S11301D00197A109B1098093590190935A01A09301
S11301E05B01B0935C01892B8A2B8B2B89F46CDF28
S11301F08091460190914701A0914801B091490135
S11302008093590190935A01A0935B01B0935C01D0
S1130210FF91EF91BF91AF919F918F917F916F91DA
S11302205F914F913F912F910F900BBE0F900FBE96
S11302300F901F9018956093460170934701809327
S11302404801909349016093590170935A01809336
S11302505B0190935C0108958BE0809381008DE7AE
S113026090E0909389008093880082E080936F00EF
S1130270109285001092840080914601909147016C
S1130280A0914801B09149018093590190935A017A
S1130290A0935B01B0935C018FB780688FBF089512
S11302A0672B09F09FC0009711F4109808958130CE
S11302B0910511F4119808958230910511F4129862
S11302C008958330910511F41398089584309105AD
S11302D011F4149808958530910511F41598089532
S11302E08630910511F4169808958730910511F41C
S11302F0179808958A30910511F4289808958B3041
S1130300910511F4299808958C30910511F42A98D7
S113031008958D30910511F42B9808958E30910530
S113032011F42C9808958F30910511F42D980895A7
S11303308031910511F42E9808958131910511F4BD
S11303402F9808958431910511F4409808958531CA
S1130350910511F4419808958631910511F442985C
S113036008958731910511F44398089588319105D2
S113037011F4449808958931910511F4459808952C
S11303808A31910511F4469808958B31910511F441
S1130390479808958E31910511F4589808958F3136
S11303A0910511F4599808958032910511F45A98E1
S11303B008958132910511F45B9808958232910574
S11303C011F45C9808958332910511F45D980895B1
S11303D08432910511F45E980895859709F09FC0C1
S11303E05F980895009711F4109A0895813091054B
S11303F011F4119A08958230910511F4129A089516
S11304008330910511F4139A08958430910511F401
S1130410149A08958530910511F4159A089586303B
S1130420910511F4169A08958730910511F4179ADD
S113043008958A30910511F4289A08958B30910516
S113044011F4299A08958C30910511F42A9A08958B
S11304508D30910511F42B9A08958E30910511F485
S11304602C9A08958F30910511F42D9A08958031B6
S1130470910511F42E9A08958131910511F42F9A62
S113048008958431910511F4409A089585319105B8
S113049011F4419A08958631910511F4429A089510
S11304A08731910511F4439A08958831910511F427
S11304B0449A08958931910511F4459A08958A3131
S11304C0910511F4469A08958B31910511F4479AD8
S11304D008958E31910511F4589A08958F3191053C
S11304E011F4599A08958032910511F45A9A089595
S11304F08132910511F45B9A08958232910511F4C9
S11305005C9A08958332910511F45D9A08958432BA
S1130510910511F45E9A0895859709F45F9A0895F8
S1130520CF93C82F80FF06C061E070E080E090E0C8
S1130530B7DE05C060E070E080E090E0B1DEC1FFAE
S113054006C061E070E081E090E0AADE05C060E0F2
S113055070E081E090E0A4DEC2FF06C061E070E0DC
S113056082E090E09DDE05C060E070E082E090E013
S113057097DEC3FF06C061E070E083E090E090DEA8
S113058005C060E070E083E090E08ADEC4FF06C04E
S113059061E070E084E090E083DE05C060E070E03C
S11305A084E090E07DDEC5FF06C061E070E085E098
S11305B090E076DE05C060E070E085E090E070DEFB
S11305C0C6FF06C061E070E086E090E069DE05C029
S11305D060E070E086E090E063DECC2334F461E018
S11305E070E087E090E05CDE05C060E070E087E0EA
S11305F090E056DECF910895CF93C82F60E070E06D
S113060080E190E04DDE8C2F8BDF61E070E081E1D2
S113061090E046DE89EF90E00197F1F700C000001A
S113062060E070E081E190E03BDE89EF90E00197CB
S1130630F1F700C00000CF91089581E0DDCF089567
S113064060E070E080E190E02BDE60E070E081E14A
S113065090E026DE87E893E10197F1F700C00000FF
S113066080E3CADF81EE94E00197F1F700C0000057
S113067080E3C2DF89EF90E00197F1F700C000004A
S113068080E3BADF83EC99E00197F1F700C0000042
S113069088E3B2DF8CE0B0DF81E0AEDF86E0ACCF90
S11306A00895CF93C82F61E070E080E190E0F8DD19
S11306B08C2F36DF61E070E081E190E0F1DD89EFBD
S11306C090E00197F1F700C0000060E070E081E184
S11306D090E0E6DD89EF90E00197F1F700C00000BB
S11306E0CF910895CF93DF93EC018881882329F07B
S11306F02196D7DF89918111FCCFDF91CF910895A5
S11307008FEE88B90000309B29C0319B29C0329BF1
S113071029C0339B29C08FED88B90000309B26C0C7
S1130720319B26C0329B26C0339B26C08FEB88B9F1
S11307300000309B23C0319B23C0329B23C0339BDA
S113074023C08FE788B90000309B20C0319B20C0B4
S1130750329B20C0339B20C080E0089581E308953C
S113076084E3089587E308958AE2089582E308956F
S113077085E3089588E3089580E3089583E3089565
S113078086E3089589E3089583E2089581E4089552
S113079082E4089583E4089584E40895CF93DF9375
S11307A0EC018130910509F447C01CF4892B81F1D7
S11307B040C08230910519F0039771F03AC08091DE
S11307C04E018130D9F59CDF80934C0180538A30EF
S11307D0A8F5C3E0D0E032C093DF90914C018917B3
S11307E069F1EFE5F1E001900020E9F73197EF5569
S11307F0F140E430F10538F4E0934B01FF27E15A6E
S1130800FE4F9083118210924C01C2E0D0E016C0DA
S1130810EFE5F1E001900020E9F73197AF014F5582
S1130820514060E070E08FE591E02FD3C1E0D0E06B
S113083005C0C0E0D0E002C0C2E0D0E0CE01DF914C
S1130840CF910895813081F0E1ECF0E080818861FE
S11308508083E2ECF0E080818660808383E3809390
S1130860C4001092C5000895E9ECF0E0808188612D
S11308708083EAECF0E080818660808383E3809368
S1130880CC001092CD000895813029F48091C800E5
S1130890882374F008958091C00088238CF4A6EC1A
S11308A0B0E0E0ECF0E08C9180818823E4F30895DB
S11308B0AEECB0E0E8ECF0E08C9180818823E4F3C6
S11308C00895613041F0E0ECF0E0908195FFFDCFB8
S11308D08093C6000895E8ECF0E0908195FFFDCF89
S11308E08093CE000895813041F0E0ECF0E0808107
S11308F08823ECF78091C6000895E8ECF0E080814D
S11309008823ECF78091CE0008958130910511F190
S11309101CF4892BC1F06FC08230910519F0039744
S1130920C9F069C080915301811179C0809152014D
S1130930811181C08091510181117DC0809150014C
S1130940811179C007C080E07DDF80E09DDF81E018
S113095090E008958091C00088230CF04FC080E09F
S1130960C2DF813041F4809157018F5F809357013A
S113097082E090E00895813141F4809156018F5FC7
S11309808093560182E090E00895813241F4809191
S113099055018F5F8093550182E090E00895813383
S11309A081F5809154018F5F8093540182E090E03F
S11309B00895109252018F7360E0806482DF83E0B7
S11309C090E0089580915101882349F010925101DB
S11309D08F7360E0806875DF83E090E00895809114
S11309E05001882389F01092500160E0806C69DF27
S11309F083E090E0089580E090E0089582E090E044
S1130A00089582E090E0089583E090E008951092C4
S1130A10530160E08F7355DF83E090E00895909177
S1130A20C00095FDF4CF83E090E0089580915201D9
S1130A30882341F2BECF8091C00085FDF7CF83E0CB
S1130A4090E008951F93CF93DF938FE591E000D258
S1130A5024E6AC01249FC001259F900D1124D09160
S1130A605701AD2FB0E0E09156016E2F70E09B016D
S1130A70220F331F220F331F620F731F6A0F7B1F56
S1130A80F09155014F2F50E09A01220F331F440F6C
S1130A90551F440F551F440F551F240F351F260F94
S1130AA0371FC0915401A90119E1C19F400D511D87
S1130AB01124481759070CF44EC04091500102C04C
S1130AC049974F5F8931910514F04C17C8F32817E3
S1130AD03907B4F3409350013091510102C00A9791
S1130AE03F5F8A30910514F03F17C8F36817790700
S1130AF0B4F3309351012091520102C005972F5F46
S1130B008530910514F02E17C8F3A817B907B4F36C
S1130B10209352011816190674F4509153015D176D
S1130B2050F45F5F019719F45093530104C05D17AB
S1130B30C0F350935301C41BC0935401F31BF093AF
S1130B405501E21BE093560180915301D81BD093C9
S1130B50570181E001C082E0DF91CF911F91089598
S1130B60CF938230910591F034F4009709F473C067
S1130B70019751F074C08430910509F455C07CF09C
S1130B80059709F45BC06BC058DD6CC0B9DD8134D6
S1130B9009F068C052DD81E080934E01E9C0B0DD08
S1130BA0823471F54FDF8130B9F4EFE5F1E0019063
S1130BB00020E9F73197AF014F55514060E070E0F4
S1130BC08FE591E062D110924F0137DD10924E0112
S1130BD081E080934D01DDC0EFE5F1E0019000205C
S1130BE0E9F73197AF014F55514060E070E08FE570
S1130BF091E04BD110924F0120DD10924E01D1C0F3
S1130C007FDD833409F0B4C0EFE5F1E0019000200A
S1130C10E9F73197AF014F55514060E070E08FE53F
S1130C2091E033D10ADD1EC080914F018C3320F452
S1130C308F5F80934F01ADC000DD14C080914F01E0
S1130C408C3320F48F5F80934F01ABC0F6DC81E0DE
S1130C5080934E018DC0F4DC81E090E0A9C080E077
S1130C6090E0A6C080E8C8DC8BE391E03BDD83E83C
S1130C70C3DC80915701CDEC8C9F812D1124869586
S1130C8086958695805D0DDD84E8B6DC80915701FC
S1130C908C9F912D1124969596959695990F292FB1
S1130CA0220F220F920F891B805DFBDC8AE8A4DCF3
S1130CB0809155018C9F812D11248695869586956A
S1130CC0805DEFDC8BE898DC809155018C9F912D41
S1130CD01124969596959695990F292F220F220FF8
S1130CE0920F891B805DDDDC80EC86DC80E391E083
S1130CF0F9DC83EC81DC809156018C9F812D1124D9
S1130D00869586958695805DCCDC84EC75DC809137
S1130D1056018C9F912D1124969596959695990F31
S1130D20292F220F220F920F891B805DBADC8AECD7
S1130D3063DC809154018C9F812D112486958695C6
S1130D408695805DAEDC8BEC57DC809154018C9FE2
S1130D50C12D1124C695C695C695CC0F9C2F990F0D
S1130D60990FC90F8C1B805D9CDC82E090E020C051
S1130D7080E842DC8FE191E0B5DC80EC3DDC84E28C
S1130D8090DC81EC39DC8FE591E0ACDC83E090E031
S1130D900FC080E831DC81E191E0A4DC84E090E0E4
S1130DA007C080E829DC80E091E09CDC85E090E0ED
S1130DB0CF910895CF93DF93CDB7DEB7A1970FB648
S1130DC0F894DEBF0FBECDBF8FEF81B912B884B9DE
S1130DD015B880EF87B98FE088B983E08093580114
S1130DE0CE01019690935E0180935D01198282E3A6
S1130DF090E0A0E0B0E08A839B83AC83BD838E83C4
S1130E009F83A887B98725E834E03B872A871C8617
S1130E108D879E87AF87B88B898B9A8BAB8BBC8B66
S1130E202EEC33E03E8B2D8B1F8A888F998FAA8FEF
S1130E30BB8F8C8F9D8FAE8FBF8F80EB95E099A376
S1130E4088A362E370E080E090E0F5D905DAFFCF93
S1130E50FC0188279927E89421912032E9F329306D
S1130E6010F02E30C8F32B3239F02D3231F468945F
S1130E7003C012D0820F911D219120532A30C8F350
S1130E801EF4909581959F4F0895DC0101C06D93E8
S1130E9041505040E0F708957AE0979F902D879F46
S10F0EA0802D910D11240895F894FFCFCB
S1130EAC4E6F20456E6F75676820436F696E7321B2
S1130EBC0020202044697370656E73696E6700446A
S1130ECC697370656E7365204368616E67653A007B
S1130EDC35633A2020203235633A0031633A2020BE
S10D0EEC203130633A0001000000D9
S9030000FC
