:100000004CC0000067C0000065C0000063C0000075
:1000100061C000005FC000005DC000005BC0000068
:1000200059C0000057C0000055C0000053C0000078
:1000300051C00000B9C000004DC000004BC000001E
:1000400049C0000047C0000045C0000043C0000098
:1000500041C000003FC000003DC000003BC00000A8
:1000600039C0000037C0000035C0000033C00000B8
:1000700031C000002FC000002DC000002BC00000C8
:1000800029C0000027C0000025C00000AC01D1013C
:100090007A018C0194019C01A40111241FBECFEFB1
:1000A000D0E4DEBFCDBF11E0A0E0B1E0E2EDF5E0CD
:1000B00000E00BBF02C007900D92A430B107D9F742
:1000C00021E0A4E0B1E001C01D92A431B207E1F744
:1000D00036D27DC295CFCF92DF92EF92FF921F93DF
:1000E000CF93DF931092040180910D01882309F4CE
:1000F00053C080E01BE0C0911201D0911301189F02
:10010000C00DD11D11244D815E816F81788589815B
:100110009A81AB81BC81481759076A077B07B0F009
:100120008881E985FA85082E000C990B099588834A
:1001300080910401E0911201F0911301189FE00DEC
:10014000F11D1124158216821782108680910401F8
:10015000E0911201F0911301189FE00DF11D11249F
:10016000C580D680E780F084409100015091010164
:1001700060910201709103014C0D5D1D6E1D7F1D8C
:1001800045835683678370878F5F809304019091C6
:100190000D01891708F4AFCFDF91CF911F91FF9028
:1001A000EF90DF90CF9008951F920F920FB60F92AD
:1001B00011240BB60F922F933F934F935F936F933E
:1001C0007F938F939F93AF93BF93EF93FF93809110
:1001D0000E0190910F01A0911001B09111010197B2
:1001E000A109B10980930E0190930F01A093100112
:1001F000B0931101892B8A2B8B2B89F46CDF8091B2
:10020000000190910101A0910201B091030180933E
:100210000E0190930F01A0931001B0931101FF9173
:10022000EF91BF91AF919F918F917F916F915F916E
:100230004F913F912F910F900BBE0F900FBE0F90DB
:100240001F90189560930001709301018093020143
:100250009093030160930E0170930F01809310013E
:100260009093110108958BE0809381008DE790E0D9
:10027000909389008093880082E080936F001092B1
:100280008500109284008091000190910101A0915D
:100290000201B091030180930E0190930F01A0938E
:1002A0001001B09311018FB780688FBF0895ECE7FC
:1002B000F0E09081987F908390818770982B908355
:1002C000EAE7F0E0808180648083808184FFFDCF55
:1002D000EAE7F0E0808180618083809178009091EE
:1002E000790008958730910508F058C0FC01EA5B59
:1002F000FF4F64C180910801813AA0F58091070108
:10030000813AB8F580910601813AD0F580910501D6
:10031000813A08F03CC045C080910801813A10F54F
:1003200081E080930C013DC080910701813A08F57E
:1003300081E080930B0135C080910601813A00F580
:1003400081E080930A012DC080910501813AF8F483
:1003500081E08093090125C080E880937A0081E0E4
:1003600090E0089580E0A3DF8093080183E090E0AF
:10037000089581E09CDF8093070184E090E0089578
:1003800082E095DF8093060185E090E0089583E0A8
:100390008EDF8093050186E090E0089580E090E094
:1003A000089580E084DF8093080181E080DF8093FE
:1003B000070182E07CDF8093060183E078DF809391
:1003C000050182E090E00895813081F0E1ECF0E0F9
:1003D000808188618083E2ECF0E0808186608083A8
:1003E00083E38093C4001092C5000895E9ECF0E027
:1003F000808188618083EAECF0E080818660808380
:1004000083E38093CC001092CD000895813029F4CD
:100410008091C800882374F008958091C0008823DB
:100420008CF4A6ECB0E0E0ECF0E08C9180818823C5
:10043000E4F30895AEECB0E0E8ECF0E08C9180815C
:100440008823E4F30895613041F0E0ECF0E090811E
:1004500095FFFDCF8093C6000895E8ECF0E0908111
:1004600095FFFDCF8093CE0008958130910509F46A
:1004700045C01CF4892BD9F006C08230910531F0BB
:10048000039709F43BC080E090E0089520910C01AF
:10049000211142C020910B0121114AC020910A0173
:1004A000211146C020910901211142C0089580E028
:1004B0008BDF80E0ABDF81E090E0089510920B01CC
:1004C00060E08061C0DF83E090E0089580910A01E0
:1004D000882341F010920A0160E08062B4DF83E07B
:1004E00090E0089580910901882359F01092090144
:1004F00060E08063A8DF83E090E0089582E090E010
:10050000089583E090E0089510920C0160E0822F3E
:100510009ADF83E090E008958091C00085FDF4CFDC
:1005200083E090E0089580910B01882379F2C6CF93
:100530008091C00085FDF7CF83E090E00895CF93D0
:10054000DF93CDB7DEB766970FB6F894DEBF0FBE68
:10055000CDBF11B88FEF82B982E080930D01CE013B
:1005600001969093130180931201198282E390E027
:10057000A0E0B0E08A839B83AC83BD838E839F839E
:10058000A887B98785E392E09B878A871C8684E1E8
:1005900090E0A0E0B0E08D879E87AF87B88B898B15
:1005A0009A8BAB8BBC8B82E791E09E8B8D8B6AE044
:1005B00070E080E090E046DE56DEFFCFEE0FFF1FDA
:1005C0000024001C0BBE0790F691E02D0994F894CE
:0205D000FFCF5B
:0405D2000100000024
:00000001FF
